S01A0000416363656C657261746F724144584C3334352E73726563E0
S11300000C943E000C945B000C945B000C945B001D
S11300100C945B000C945B000C945B000C945B00F0
S11300200C945B000C945B000C945B000C945B00E0
S11300300C945B000C945B000C945B000C945B00D0
S11300400C945B000C945B000C945B000C945B00C0
S11300500C945B000C945B000C945B000C945B00B0
S11300600C945B000C945B000C945B000C945B00A0
S11300700C945B000C945B000C945B0011241FBE79
S1130080CFEFD0E1DEBFCDBF11E0A0E0B1E0E8E406
S1130090FAE002C005900D92AE31B107D9F721E024
S11300A0AEE1B1E001C01D92A732B207E1F70E94B0
S11300B007020C9422050C940000CF93DF9300D028
S11300C000D0CDB7DEB78C8319821A821B8280914F
S11300D0200181110DC08C818068898342E0BE01BA
S11300E06F5F7F4F81E00E943D018A818B8310C046
S11300F020E041E0BE016C5F7F4F8DE10E943A0138
S113010021E041E0BE016D5F7F4F8DE10E943B0124
S11301108B810F900F900F900F90DF91CF910895E6
S11301200F93CF938093200181110AC000E021E056
S113013040E452E46FE070E00E943C01C82F07C025
S113014060EA76E881E090E00E943901C82F80E0FF
S11301500E945D00853E09F0CFEF82E080931F018D
S113016010921E018C2FCF910F910895CF92DF92A0
S1130170EF92FF920F931F93CF93DF93CDB7DEB728
S113018028970FB6F894DEBF0FBECDBF6C017B017C
S11301908A0182E38983FE01329687E0DF011D92A2
S11301A08A95E9F780912001811126C082EF8A8324
S11301B047E0BF0181E00E943D018C8190E0982FCF
S11301C088272B81820F911DF601918380838E8174
S11301D090E0982F88272D81820F911DD7018D9350
S11301E09C93888590E0982F88272F81820F911DFA
S11301F0F801918380832EC020E041E0BE016F5F4F
S11302007F4F8DE10E943A0121E046E0BE016E5F1E
S11302107F4F8DE10E943B018B8190E0982F8827CE
S11302202A81820F911DD6018D939C938D8190E03C
S1130230982F88272C81820F911DF7019183808349
S11302408F8190E0982F88272E81820F911DD801ED
S11302508D939C9328960FB6F894DEBF0FBECDBF46
S1130260DF91CF911F910F91FF90EF90DF90CF908E
S1130270089508950895089508950895169A00001C
S113028016980895CF93DF93D82F662311F0149A0C
S113029001C01498159881B18F6081B9C2B1C07F33
S11302A08D2F82958F708C2B82B90E943E01DF7056
S11302B0DC2BD2B90E943E01CF60C2B9DF91CF914D
S11302C00895882311F0149A01C01498159A81B1E5
S11302D0807F81B9169A000090B116980000169A92
S11302E0000020B12F70892F8295807F1698822B71
S11302F0089580E00E9461018823DCF300C000C0FF
S113030080E00E9461010895CF93C82F0E94790173
S113031060E08C2F0E944201CF910895611104C0C6
S113032080580E948401089580540E948401089595
S113033081E00E9484010895CF93C82F0E9479011F
S1130340CA3049F4803410F080E001C080E4805861
S11303500E94840104C061E08C2F0E944201CF916D
S11303600895CF93DF93EC012196FC0180818823CB
S113037029F00E949C0189918111FBCFDF91CF91DB
S11303800895CF93C82F81B18F6781B98FE99FE01A
S11303900197F1F700C00000119A109A0E943E01E3
S11303A081EE94E00197F1F700C000000E943E0145
S11303B095E19A95F1F700000E943E0185E18A9546
S11303C0F1F7000010980E943E0195E19A95F1F72B
S11303D0000088E20E94840188E00E9484010E9457
S11303E0980186E00E9484018C2F0E948401CF91A1
S11303F0089599B1E1EEF4E03197F1F700C00000FF
S113040089B1892382FDF5CF4A9BFECF0895CF930E
S1130410DF9300D0CDB7DEB752985A9A8CE00E9491
S1130420C10181E00E9490008E010F5F1F4F1A826C
S1130430198240E050E060E070E080E090E00E94CB
S1130440B6001F930F930E9444020E94980180E01B
S113045091E00E94B10181E191E00E94B10161E06B
S113046087E00E948E018AE30E949C010E94F901A8
S11304708EE00E94840188E191E00E94B1010E9413
S1130480F9010F900F90D3CFA0E0B0E0EAE4F2E0DE
S11304900C94FB04AE014B5F5F4FFA0161917191C3
S11304A0AF0180912301909124010E945A02E2E05D
S11304B00C941705ABE0B0E0E0E6F2E00C94EB043A
S11304C06C017B018A01FC0117821682838181FF02
S11304D0CCC1CE0101963C01F6019381F70193FD55
S11304E0859193FF81917F01882309F4BAC18532F4
S11304F039F493FD859193FF81917F01853229F42D
S1130500B60190E00E945104E7CF912C212C312CAC
S1130510FFE1F315D8F08B3279F038F4803279F0BA
S11305208332A1F4232D20611DC08D3261F080330C
S113053069F4232D216016C0832D8260382EE32DAB
S1130540E4603E2E2AC0F32DF8601DC037FC2DC098
S113055020ED280F2A3040F08E32B9F436FC81C1E8
S1130560232D2064322E19C036FE06C08AE0989EE0
S1130570200D1124922E11C0EAE02E9E200D11248C
S1130580222EF32DF0623F2E08C08C3621F4832DE9
S11305908068382E02C0883641F4F70193FD8591B6
S11305A093FF81917F018111B3CF982F9F7D955443
S11305B0933028F40C5F1F4F9FE399830DC083365B
S11305C031F0833771F0833509F059C021C0F80147
S11305D0808189830E5F1F4F88248394912C53015B
S11305E013C02801F2E04F0E511CF801A080B18025
S11305F036FE03C0692D70E002C06FEF7FEFC501C6
S11306000E9446044C018201F32DFF773F2E16C051
S1130610280122E0420E511CF801A080B18036FE70
S113062003C0692D70E002C06FEF7FEFC5010E9427
S11306303B044C01F32DF0683F2E820133FC1BC0B8
S1130640822D90E088169906B0F4B60180E290E01D
S11306500E9451042A94F4CFF50137FC859137FEAA
S113066081915F01B60190E00E94510421102A9407
S113067021E0821A91088114910471F7E8C084364C
S113068011F0893641F5F80137FE07C060817181A8
S1130690828193810C5F1F4F08C060817181072E96
S11306A0000C880B990B0E5F1F4FF32DFF763F2E26
S11306B097FF09C090958095709561957F4F8F4FF6
S11306C09F4FF0683F2E2AE030E0A3010E948D0482
S11306D0882E861845C0853731F4232D2F7EB22EFF
S11306E02AE030E025C0932D997FB92E8F36C1F0D2
S11306F018F4883579F0B5C0803719F0883721F0BF
S1130700B0C0E92FE061BE2EB4FE0DC0FB2DF46035
S1130710BF2E09C034FE0AC0292F2660B22E06C09F
S113072028E030E005C020E130E002C020E132E002
S1130730F801B7FE07C060817181828193810C5FEB
S11307401F4F06C06081718180E090E00E5F1F4FF3
S1130750A3010E948D04882E8618FB2DFF773F2E5F
S113076036FE0DC0232D2E7FA22E891458F434FE9C
S11307700BC032FC09C0832D8E7EA82E05C0B82C78
S1130780A32C03C0B82C01C0B92CA4FE0FC0FE01D9
S1130790E80DF11D8081803321F49A2D997EA92ED4
S11307A009C0A2FE06C0B394B39404C08A2D86780F
S11307B009F0B394A3FC11C0A0FE06C0B21488F4DF
S11307C0280C922C9B180EC0B21460F4B60180E27F
S11307D090E00E945104B394F7CFB21418F42B188C
S11307E002C0982C212CA4FE10C0B60180E390E036
S11307F00E945104A2FE17C0A1FC03C088E790E048
S113080002C088E590E0B6010CC08A2D867859F0C4
S1130810A1FE02C08BE201C080E2A7FC8DE2B6011A
S113082090E00E945104891438F4B60180E390E00A
S11308300E9451049A94F7CF8A94F301E80DF11DB4
S11308408081B60190E00E9451048110F5CF2220EE
S113085009F442CEB60180E290E00E9451042A9449
S1130860F6CFF6018681978102C08FEF9FEF2B961A
S1130870E2E10C940705FC01059061507040011001
S1130880D8F7809590958E0F9F1F0895FC016150B5
S1130890704001900110D8F7809590958E0F9F1F9E
S11308A008950F931F93CF93DF93FB01238121FDC1
S11308B003C08FEF9FEF2CC022FF16C046815781E3
S11308C0248135814217530744F4A081B1819D01ED
S11308D02F5F3F4F318320838C93268137812F5F95
S11308E03F4F3783268314C08B01EC01FB01008446
S11308F0F185E02D0995892BE1F6D80116968D91A5
S11309009C911797019617969C938E931697CE01F8
S1130910DF91CF911F910F910895FA01AA272830F2
S113092051F1203181F1E8946F936E7F6E5F7F4FB8
S11309308F4F9F4FAF4FB1E03ED0B4E03CD0670F34
S1130940781F891F9A1FA11D680F791F8A1F911D87
S1130950A11D6A0F711D811D911DA11D20D009F4D7
S113096068943F912AE0269F11243019305D319319
S1130970DEF6CF010895462F4770405D4193B3E002
S11309800FD0C9F7F6CF462F4F70405D4A3318F0A9
S1130990495D31FD4052419302D0A9F7EACFB4E05A
S11309A0A6959795879577956795BA95C9F7009712
S11309B06105710508959B01AC010A2E06945795B3
S11309C0479537952795BA95C9F7620F731F841F0A
S11309D0951FA01D08952F923F924F925F926F92A0
S11309E07F928F929F92AF92BF92CF92DF92EF92BB
S11309F0FF920F931F93CF93DF93CDB7DEB7CA1B3C
S1130A00DB0B0FB6F894DEBF0FBECDBF09942A8866
S1130A10398848885F846E847D848C849B84AA840E
S1130A20B984C884DF80EE80FD800C811B81AA819B
S1130A30B981CE0FD11D0FB6F894DEBF0FBECDBF66
S10B0A40ED010895F894FFCFC5
S1130A484C43442054657374204C696E6520310A04
S1110A58004C696E652032004375724F6E00CB
S9030000FC
